{
  "_format": "hh-sol-artifact-1",
  "contractName": "ETHBridge",
  "sourceName": "contracts/ETHBridge.sol",
  "abi": [
    {
      "inputs": [
        {
          "internalType": "address",
          "name": "_tokenAddress",
          "type": "address"
        }
      ],
      "stateMutability": "nonpayable",
      "type": "constructor"
    },
    {
      "anonymous": false,
      "inputs": [
        {
          "indexed": false,
          "internalType": "uint256",
          "name": "amount",
          "type": "uint256"
        },
        {
          "indexed": false,
          "internalType": "address",
          "name": "sender",
          "type": "address"
        },
        {
          "indexed": false,
          "internalType": "string",
          "name": "_transactionhash",
          "type": "string"
        }
      ],
      "name": "DEPOSIT",
      "type": "event"
    },
    {
      "anonymous": false,
      "inputs": [
        {
          "indexed": true,
          "internalType": "address",
          "name": "previousOwner",
          "type": "address"
        },
        {
          "indexed": true,
          "internalType": "address",
          "name": "newOwner",
          "type": "address"
        }
      ],
      "name": "OwnershipTransferred",
      "type": "event"
    },
    {
      "anonymous": false,
      "inputs": [
        {
          "indexed": false,
          "internalType": "uint256",
          "name": "amount",
          "type": "uint256"
        },
        {
          "indexed": false,
          "internalType": "address",
          "name": "sender",
          "type": "address"
        }
      ],
      "name": "WITHDRAW",
      "type": "event"
    },
    {
      "inputs": [
        {
          "internalType": "uint256",
          "name": "amount",
          "type": "uint256"
        },
        {
          "internalType": "string",
          "name": "_transactionhash",
          "type": "string"
        }
      ],
      "name": "deposit",
      "outputs": [
        {
          "internalType": "bool",
          "name": "",
          "type": "bool"
        }
      ],
      "stateMutability": "nonpayable",
      "type": "function"
    },
    {
      "inputs": [],
      "name": "isBlocked",
      "outputs": [
        {
          "internalType": "bool",
          "name": "",
          "type": "bool"
        }
      ],
      "stateMutability": "view",
      "type": "function"
    },
    {
      "inputs": [],
      "name": "owner",
      "outputs": [
        {
          "internalType": "address",
          "name": "",
          "type": "address"
        }
      ],
      "stateMutability": "view",
      "type": "function"
    },
    {
      "inputs": [],
      "name": "renounceOwnership",
      "outputs": [],
      "stateMutability": "nonpayable",
      "type": "function"
    },
    {
      "inputs": [
        {
          "internalType": "address",
          "name": "newOwner",
          "type": "address"
        }
      ],
      "name": "transferOwnership",
      "outputs": [],
      "stateMutability": "nonpayable",
      "type": "function"
    },
    {
      "inputs": [
        {
          "internalType": "uint256",
          "name": "amount",
          "type": "uint256"
        },
        {
          "internalType": "address",
          "name": "receiver",
          "type": "address"
        }
      ],
      "name": "withdraw",
      "outputs": [
        {
          "internalType": "bool",
          "name": "",
          "type": "bool"
        }
      ],
      "stateMutability": "nonpayable",
      "type": "function"
    }
  ],
  "bytecode": "0x60806040523480156200001157600080fd5b5060405162001646380380620016468339818101604052810190620000379190620001f5565b620000576200004b6200011260201b60201c565b6200011a60201b60201c565b600073ffffffffffffffffffffffffffffffffffffffff168173ffffffffffffffffffffffffffffffffffffffff161415620000ca576040517f08c379a0000000000000000000000000000000000000000000000000000000008152600401620000c19062000263565b60405180910390fd5b80600160006101000a81548173ffffffffffffffffffffffffffffffffffffffff021916908373ffffffffffffffffffffffffffffffffffffffff16021790555050620002e4565b600033905090565b60008060009054906101000a900473ffffffffffffffffffffffffffffffffffffffff169050816000806101000a81548173ffffffffffffffffffffffffffffffffffffffff021916908373ffffffffffffffffffffffffffffffffffffffff1602179055508173ffffffffffffffffffffffffffffffffffffffff168173ffffffffffffffffffffffffffffffffffffffff167f8be0079c531659141344cd1fd0a4f28419497f9722a3daafe3b4186f6b6457e060405160405180910390a35050565b600081519050620001ef81620002ca565b92915050565b6000602082840312156200020857600080fd5b60006200021884828501620001de565b91505092915050565b60006200023060138362000285565b91507f43616e6e6f7420626520616464726573732030000000000000000000000000006000830152602082019050919050565b600060208201905081810360008301526200027e8162000221565b9050919050565b600082825260208201905092915050565b6000620002a382620002aa565b9050919050565b600073ffffffffffffffffffffffffffffffffffffffff82169050919050565b620002d58162000296565b8114620002e157600080fd5b50565b61135280620002f46000396000f3fe608060405234801561001057600080fd5b50600436106100615760003560e01c8062f714ce14610066578063715018a6146100965780638da5cb5b146100a0578063d75f0da7146100be578063f1215d25146100dc578063f2fde38b1461010c575b600080fd5b610080600480360381019061007b9190610c33565b610128565b60405161008d9190610f81565b60405180910390f35b61009e6102e8565b005b6100a8610370565b6040516100b59190610f3d565b60405180910390f35b6100c6610399565b6040516100d39190610f81565b60405180910390f35b6100f660048036038101906100f19190610c6f565b6103ac565b6040516101039190610f81565b60405180910390f35b61012660048036038101906101219190610be1565b6108d3565b005b60006101326109cb565b73ffffffffffffffffffffffffffffffffffffffff16610150610370565b73ffffffffffffffffffffffffffffffffffffffff16146101a6576040517f08c379a000000000000000000000000000000000000000000000000000000000815260040161019d90610fdc565b60405180910390fd5b600073ffffffffffffffffffffffffffffffffffffffff168273ffffffffffffffffffffffffffffffffffffffff161415610216576040517f08c379a000000000000000000000000000000000000000000000000000000000815260040161020d9061103c565b60405180910390fd5b600160009054906101000a900473ffffffffffffffffffffffffffffffffffffffff1673ffffffffffffffffffffffffffffffffffffffff166340c10f1983856040518363ffffffff1660e01b8152600401610273929190610f58565b600060405180830381600087803b15801561028d57600080fd5b505af11580156102a1573d6000803e3d6000fd5b505050507f091a7ab807f3c1e624f8254a25e2ba36b8a782492a04d5df84baa272a243b2ac83836040516102d692919061105c565b60405180910390a16001905092915050565b6102f06109cb565b73ffffffffffffffffffffffffffffffffffffffff1661030e610370565b73ffffffffffffffffffffffffffffffffffffffff1614610364576040517f08c379a000000000000000000000000000000000000000000000000000000000815260040161035b90610fdc565b60405180910390fd5b61036e60006109d3565b565b60008060009054906101000a900473ffffffffffffffffffffffffffffffffffffffff16905090565b600360009054906101000a900460ff1681565b60008073ffffffffffffffffffffffffffffffffffffffff16600160009054906101000a900473ffffffffffffffffffffffffffffffffffffffff1673ffffffffffffffffffffffffffffffffffffffff16141561043f576040517f08c379a00000000000000000000000000000000000000000000000000000000081526004016104369061103c565b60405180910390fd5b60011515600360009054906101000a900460ff1615151415610496576040517f08c379a000000000000000000000000000000000000000000000000000000000815260040161048d90610fbc565b60405180910390fd5b600160009054906101000a900473ffffffffffffffffffffffffffffffffffffffff1673ffffffffffffffffffffffffffffffffffffffff166370a08231336040518263ffffffff1660e01b81526004016104f19190610f3d565b60206040518083038186803b15801561050957600080fd5b505afa15801561051d573d6000803e3d6000fd5b505050506040513d601f19601f820116820180604052508101906105419190610c0a565b831115610583576040517f08c379a000000000000000000000000000000000000000000000000000000000815260040161057a9061101c565b60405180910390fd5b6000600260003373ffffffffffffffffffffffffffffffffffffffff1673ffffffffffffffffffffffffffffffffffffffff168152602001908152602001600020805480602002602001604051908101604052809291908181526020016000905b82821015610690578382906000526020600020018054610603906111d5565b80601f016020809104026020016040519081016040528092919081815260200182805461062f906111d5565b801561067c5780601f106106515761010080835404028352916020019161067c565b820191906000526020600020905b81548152906001019060200180831161065f57829003601f168201915b5050505050815260200190600101906105e4565b50505050905060005b8151811015610784578181815181106106db577f4e487b7100000000000000000000000000000000000000000000000000000000600052603260045260246000fd5b60200260200101516040516020016106f39190610f26565b604051602081830303815290604052805190602001208460405160200161071a9190610f26565b604051602081830303815290604052805190602001201415610771576040517f08c379a000000000000000000000000000000000000000000000000000000000815260040161076890610ffc565b60405180910390fd5b808061077c90611207565b915050610699565b50600260003373ffffffffffffffffffffffffffffffffffffffff1673ffffffffffffffffffffffffffffffffffffffff168152602001908152602001600020839080600181540180825580915050600190039060005260206000200160009091909190915090805190602001906107fd929190610a97565b50600160009054906101000a900473ffffffffffffffffffffffffffffffffffffffff1673ffffffffffffffffffffffffffffffffffffffff166379cc679033866040518363ffffffff1660e01b815260040161085b929190610f58565b600060405180830381600087803b15801561087557600080fd5b505af1158015610889573d6000803e3d6000fd5b505050507f41cb71e9dcaf46b1e1f415999c9bd98965eaf2adafc421e9afbfeb45c01dba1b8433856040516108c093929190611085565b60405180910390a1600191505092915050565b6108db6109cb565b73ffffffffffffffffffffffffffffffffffffffff166108f9610370565b73ffffffffffffffffffffffffffffffffffffffff161461094f576040517f08c379a000000000000000000000000000000000000000000000000000000000815260040161094690610fdc565b60405180910390fd5b600073ffffffffffffffffffffffffffffffffffffffff168173ffffffffffffffffffffffffffffffffffffffff1614156109bf576040517f08c379a00000000000000000000000000000000000000000000000000000000081526004016109b690610f9c565b60405180910390fd5b6109c8816109d3565b50565b600033905090565b60008060009054906101000a900473ffffffffffffffffffffffffffffffffffffffff169050816000806101000a81548173ffffffffffffffffffffffffffffffffffffffff021916908373ffffffffffffffffffffffffffffffffffffffff1602179055508173ffffffffffffffffffffffffffffffffffffffff168173ffffffffffffffffffffffffffffffffffffffff167f8be0079c531659141344cd1fd0a4f28419497f9722a3daafe3b4186f6b6457e060405160405180910390a35050565b828054610aa3906111d5565b90600052602060002090601f016020900481019282610ac55760008555610b0c565b82601f10610ade57805160ff1916838001178555610b0c565b82800160010185558215610b0c579182015b82811115610b0b578251825591602001919060010190610af0565b5b509050610b199190610b1d565b5090565b5b80821115610b36576000816000905550600101610b1e565b5090565b6000610b4d610b48846110f4565b6110c3565b905082815260208101848484011115610b6557600080fd5b610b70848285611193565b509392505050565b600081359050610b87816112ee565b92915050565b600082601f830112610b9e57600080fd5b8135610bae848260208601610b3a565b91505092915050565b600081359050610bc681611305565b92915050565b600081519050610bdb81611305565b92915050565b600060208284031215610bf357600080fd5b6000610c0184828501610b78565b91505092915050565b600060208284031215610c1c57600080fd5b6000610c2a84828501610bcc565b91505092915050565b60008060408385031215610c4657600080fd5b6000610c5485828601610bb7565b9250506020610c6585828601610b78565b9150509250929050565b60008060408385031215610c8257600080fd5b6000610c9085828601610bb7565b925050602083013567ffffffffffffffff811115610cad57600080fd5b610cb985828601610b8d565b9150509250929050565b610ccc8161114b565b82525050565b610cdb8161115d565b82525050565b6000610cec82611124565b610cf6818561112f565b9350610d068185602086016111a2565b610d0f816112dd565b840191505092915050565b6000610d2582611124565b610d2f8185611140565b9350610d3f8185602086016111a2565b80840191505092915050565b6000610d5860268361112f565b91507f4f776e61626c653a206e6577206f776e657220697320746865207a65726f206160008301527f64647265737300000000000000000000000000000000000000000000000000006020830152604082019050919050565b6000610dbe601b8361112f565b91507f42726964676520697320626c6f636b6564207269676874206e6f7700000000006000830152602082019050919050565b6000610dfe60208361112f565b91507f4f776e61626c653a2063616c6c6572206973206e6f7420746865206f776e65726000830152602082019050919050565b6000610e3e602b8361112f565b91507f54686973207472616e73616374696f6e20686173682068617320616c7265616460008301527f79206265656e20757365640000000000000000000000000000000000000000006020830152604082019050919050565b6000610ea4601b8361112f565b91507f416d6f756e74206578636565647320796f75722062616c616e636500000000006000830152602082019050919050565b6000610ee460138361112f565b91507f43616e6e6f7420626520616464726573732030000000000000000000000000006000830152602082019050919050565b610f2081611189565b82525050565b6000610f328284610d1a565b915081905092915050565b6000602082019050610f526000830184610cc3565b92915050565b6000604082019050610f6d6000830185610cc3565b610f7a6020830184610f17565b9392505050565b6000602082019050610f966000830184610cd2565b92915050565b60006020820190508181036000830152610fb581610d4b565b9050919050565b60006020820190508181036000830152610fd581610db1565b9050919050565b60006020820190508181036000830152610ff581610df1565b9050919050565b6000602082019050818103600083015261101581610e31565b9050919050565b6000602082019050818103600083015261103581610e97565b9050919050565b6000602082019050818103600083015261105581610ed7565b9050919050565b60006040820190506110716000830185610f17565b61107e6020830184610cc3565b9392505050565b600060608201905061109a6000830186610f17565b6110a76020830185610cc3565b81810360408301526110b98184610ce1565b9050949350505050565b6000604051905081810181811067ffffffffffffffff821117156110ea576110e96112ae565b5b8060405250919050565b600067ffffffffffffffff82111561110f5761110e6112ae565b5b601f19601f8301169050602081019050919050565b600081519050919050565b600082825260208201905092915050565b600081905092915050565b600061115682611169565b9050919050565b60008115159050919050565b600073ffffffffffffffffffffffffffffffffffffffff82169050919050565b6000819050919050565b82818337600083830152505050565b60005b838110156111c05780820151818401526020810190506111a5565b838111156111cf576000848401525b50505050565b600060028204905060018216806111ed57607f821691505b602082108114156112015761120061127f565b5b50919050565b600061121282611189565b91507fffffffffffffffffffffffffffffffffffffffffffffffffffffffffffffffff82141561124557611244611250565b5b600182019050919050565b7f4e487b7100000000000000000000000000000000000000000000000000000000600052601160045260246000fd5b7f4e487b7100000000000000000000000000000000000000000000000000000000600052602260045260246000fd5b7f4e487b7100000000000000000000000000000000000000000000000000000000600052604160045260246000fd5b6000601f19601f8301169050919050565b6112f78161114b565b811461130257600080fd5b50565b61130e81611189565b811461131957600080fd5b5056fea264697066735822122038ec0e71dcef60117d839e076f454a3569f6a4a2d247bad12ff7528cadc6b7f864736f6c63430008000033",
  "linkReferences": {},
  "deployedLinkReferences": {}
}