{
  "_format": "hh-sol-artifact-1",
  "contractName": "BSCBRIDGE",
  "sourceName": "contracts/BSCBridge.sol",
  "abi": [
    {
      "inputs": [
        {
          "internalType": "address",
          "name": "_tokenAddress",
          "type": "address"
        }
      ],
      "stateMutability": "nonpayable",
      "type": "constructor"
    },
    {
      "anonymous": false,
      "inputs": [
        {
          "indexed": false,
          "internalType": "uint256",
          "name": "amount",
          "type": "uint256"
        },
        {
          "indexed": false,
          "internalType": "address",
          "name": "sender",
          "type": "address"
        },
        {
          "indexed": false,
          "internalType": "string",
          "name": "_transactionhash",
          "type": "string"
        }
      ],
      "name": "DEPOSIT",
      "type": "event"
    },
    {
      "anonymous": false,
      "inputs": [
        {
          "indexed": true,
          "internalType": "address",
          "name": "previousOwner",
          "type": "address"
        },
        {
          "indexed": true,
          "internalType": "address",
          "name": "newOwner",
          "type": "address"
        }
      ],
      "name": "OwnershipTransferred",
      "type": "event"
    },
    {
      "anonymous": false,
      "inputs": [
        {
          "indexed": false,
          "internalType": "uint256",
          "name": "amount",
          "type": "uint256"
        },
        {
          "indexed": false,
          "internalType": "address",
          "name": "sender",
          "type": "address"
        }
      ],
      "name": "WITHDRAW",
      "type": "event"
    },
    {
      "inputs": [
        {
          "internalType": "uint256",
          "name": "amount",
          "type": "uint256"
        },
        {
          "internalType": "string",
          "name": "_transactionhash",
          "type": "string"
        }
      ],
      "name": "deposit",
      "outputs": [
        {
          "internalType": "bool",
          "name": "",
          "type": "bool"
        }
      ],
      "stateMutability": "nonpayable",
      "type": "function"
    },
    {
      "inputs": [],
      "name": "isBlocked",
      "outputs": [
        {
          "internalType": "bool",
          "name": "",
          "type": "bool"
        }
      ],
      "stateMutability": "view",
      "type": "function"
    },
    {
      "inputs": [],
      "name": "owner",
      "outputs": [
        {
          "internalType": "address",
          "name": "",
          "type": "address"
        }
      ],
      "stateMutability": "view",
      "type": "function"
    },
    {
      "inputs": [],
      "name": "renounceOwnership",
      "outputs": [],
      "stateMutability": "nonpayable",
      "type": "function"
    },
    {
      "inputs": [
        {
          "internalType": "address",
          "name": "newOwner",
          "type": "address"
        }
      ],
      "name": "transferOwnership",
      "outputs": [],
      "stateMutability": "nonpayable",
      "type": "function"
    },
    {
      "inputs": [
        {
          "internalType": "uint256",
          "name": "amount",
          "type": "uint256"
        },
        {
          "internalType": "address",
          "name": "receiver",
          "type": "address"
        }
      ],
      "name": "withdraw",
      "outputs": [
        {
          "internalType": "bool",
          "name": "",
          "type": "bool"
        }
      ],
      "stateMutability": "nonpayable",
      "type": "function"
    }
  ],
  "bytecode": "0x60806040523480156200001157600080fd5b506040516200189e3803806200189e8339818101604052810190620000379190620001f5565b620000576200004b6200011260201b60201c565b6200011a60201b60201c565b600073ffffffffffffffffffffffffffffffffffffffff168173ffffffffffffffffffffffffffffffffffffffff161415620000ca576040517f08c379a0000000000000000000000000000000000000000000000000000000008152600401620000c19062000263565b60405180910390fd5b80600160006101000a81548173ffffffffffffffffffffffffffffffffffffffff021916908373ffffffffffffffffffffffffffffffffffffffff16021790555050620002e4565b600033905090565b60008060009054906101000a900473ffffffffffffffffffffffffffffffffffffffff169050816000806101000a81548173ffffffffffffffffffffffffffffffffffffffff021916908373ffffffffffffffffffffffffffffffffffffffff1602179055508173ffffffffffffffffffffffffffffffffffffffff168173ffffffffffffffffffffffffffffffffffffffff167f8be0079c531659141344cd1fd0a4f28419497f9722a3daafe3b4186f6b6457e060405160405180910390a35050565b600081519050620001ef81620002ca565b92915050565b6000602082840312156200020857600080fd5b60006200021884828501620001de565b91505092915050565b60006200023060138362000285565b91507f43616e6e6f7420626520616464726573732030000000000000000000000000006000830152602082019050919050565b600060208201905081810360008301526200027e8162000221565b9050919050565b600082825260208201905092915050565b6000620002a382620002aa565b9050919050565b600073ffffffffffffffffffffffffffffffffffffffff82169050919050565b620002d58162000296565b8114620002e157600080fd5b50565b6115aa80620002f46000396000f3fe608060405234801561001057600080fd5b50600436106100615760003560e01c8062f714ce14610066578063715018a6146100965780638da5cb5b146100a0578063d75f0da7146100be578063f1215d25146100dc578063f2fde38b1461010c575b600080fd5b610080600480360381019061007b9190610d31565b610128565b60405161008d9190611182565b60405180910390f35b61009e610347565b005b6100a86103cf565b6040516100b59190611107565b60405180910390f35b6100c66103f8565b6040516100d39190611182565b60405180910390f35b6100f660048036038101906100f19190610d6d565b61040b565b6040516101039190611182565b60405180910390f35b61012660048036038101906101219190610cb6565b610993565b005b6000610132610a8b565b73ffffffffffffffffffffffffffffffffffffffff166101506103cf565b73ffffffffffffffffffffffffffffffffffffffff16146101a6576040517f08c379a000000000000000000000000000000000000000000000000000000000815260040161019d9061121d565b60405180910390fd5b600073ffffffffffffffffffffffffffffffffffffffff168273ffffffffffffffffffffffffffffffffffffffff161415610216576040517f08c379a000000000000000000000000000000000000000000000000000000000815260040161020d9061127d565b60405180910390fd5b600160009054906101000a900473ffffffffffffffffffffffffffffffffffffffff1673ffffffffffffffffffffffffffffffffffffffff1663a9059cbb83856040518363ffffffff1660e01b8152600401610273929190611159565b602060405180830381600087803b15801561028d57600080fd5b505af11580156102a1573d6000803e3d6000fd5b505050506040513d601f19601f820116820180604052508101906102c59190610cdf565b610304576040517f08c379a00000000000000000000000000000000000000000000000000000000081526004016102fb9061119d565b60405180910390fd5b7f091a7ab807f3c1e624f8254a25e2ba36b8a782492a04d5df84baa272a243b2ac838360405161033592919061129d565b60405180910390a16001905092915050565b61034f610a8b565b73ffffffffffffffffffffffffffffffffffffffff1661036d6103cf565b73ffffffffffffffffffffffffffffffffffffffff16146103c3576040517f08c379a00000000000000000000000000000000000000000000000000000000081526004016103ba9061121d565b60405180910390fd5b6103cd6000610a93565b565b60008060009054906101000a900473ffffffffffffffffffffffffffffffffffffffff16905090565b600360009054906101000a900460ff1681565b60008073ffffffffffffffffffffffffffffffffffffffff16600160009054906101000a900473ffffffffffffffffffffffffffffffffffffffff1673ffffffffffffffffffffffffffffffffffffffff16141561049e576040517f08c379a00000000000000000000000000000000000000000000000000000000081526004016104959061127d565b60405180910390fd5b60011515600360009054906101000a900460ff16151514156104f5576040517f08c379a00000000000000000000000000000000000000000000000000000000081526004016104ec906111dd565b60405180910390fd5b600160009054906101000a900473ffffffffffffffffffffffffffffffffffffffff1673ffffffffffffffffffffffffffffffffffffffff166370a08231336040518263ffffffff1660e01b81526004016105509190611107565b60206040518083038186803b15801561056857600080fd5b505afa15801561057c573d6000803e3d6000fd5b505050506040513d601f19601f820116820180604052508101906105a09190610d08565b8311156105e2576040517f08c379a00000000000000000000000000000000000000000000000000000000081526004016105d99061125d565b60405180910390fd5b6000600260003373ffffffffffffffffffffffffffffffffffffffff1673ffffffffffffffffffffffffffffffffffffffff168152602001908152602001600020805480602002602001604051908101604052809291908181526020016000905b828210156106ef57838290600052602060002001805461066290611416565b80601f016020809104026020016040519081016040528092919081815260200182805461068e90611416565b80156106db5780601f106106b0576101008083540402835291602001916106db565b820191906000526020600020905b8154815290600101906020018083116106be57829003601f168201915b505050505081526020019060010190610643565b50505050905060005b81518110156107e35781818151811061073a577f4e487b7100000000000000000000000000000000000000000000000000000000600052603260045260246000fd5b602002602001015160405160200161075291906110f0565b604051602081830303815290604052805190602001208460405160200161077991906110f0565b6040516020818303038152906040528051906020012014156107d0576040517f08c379a00000000000000000000000000000000000000000000000000000000081526004016107c79061123d565b60405180910390fd5b80806107db90611448565b9150506106f8565b50600260003373ffffffffffffffffffffffffffffffffffffffff1673ffffffffffffffffffffffffffffffffffffffff1681526020019081526020016000208390806001815401808255809150506001900390600052602060002001600090919091909150908051906020019061085c929190610b57565b50600160009054906101000a900473ffffffffffffffffffffffffffffffffffffffff1673ffffffffffffffffffffffffffffffffffffffff166323b872dd3330876040518463ffffffff1660e01b81526004016108bc93929190611122565b602060405180830381600087803b1580156108d657600080fd5b505af11580156108ea573d6000803e3d6000fd5b505050506040513d601f19601f8201168201806040525081019061090e9190610cdf565b61094d576040517f08c379a0000000000000000000000000000000000000000000000000000000008152600401610944906111fd565b60405180910390fd5b7f41cb71e9dcaf46b1e1f415999c9bd98965eaf2adafc421e9afbfeb45c01dba1b843385604051610980939291906112c6565b60405180910390a1600191505092915050565b61099b610a8b565b73ffffffffffffffffffffffffffffffffffffffff166109b96103cf565b73ffffffffffffffffffffffffffffffffffffffff1614610a0f576040517f08c379a0000000000000000000000000000000000000000000000000000000008152600401610a069061121d565b60405180910390fd5b600073ffffffffffffffffffffffffffffffffffffffff168173ffffffffffffffffffffffffffffffffffffffff161415610a7f576040517f08c379a0000000000000000000000000000000000000000000000000000000008152600401610a76906111bd565b60405180910390fd5b610a8881610a93565b50565b600033905090565b60008060009054906101000a900473ffffffffffffffffffffffffffffffffffffffff169050816000806101000a81548173ffffffffffffffffffffffffffffffffffffffff021916908373ffffffffffffffffffffffffffffffffffffffff1602179055508173ffffffffffffffffffffffffffffffffffffffff168173ffffffffffffffffffffffffffffffffffffffff167f8be0079c531659141344cd1fd0a4f28419497f9722a3daafe3b4186f6b6457e060405160405180910390a35050565b828054610b6390611416565b90600052602060002090601f016020900481019282610b855760008555610bcc565b82601f10610b9e57805160ff1916838001178555610bcc565b82800160010185558215610bcc579182015b82811115610bcb578251825591602001919060010190610bb0565b5b509050610bd99190610bdd565b5090565b5b80821115610bf6576000816000905550600101610bde565b5090565b6000610c0d610c0884611335565b611304565b905082815260208101848484011115610c2557600080fd5b610c308482856113d4565b509392505050565b600081359050610c478161152f565b92915050565b600081519050610c5c81611546565b92915050565b600082601f830112610c7357600080fd5b8135610c83848260208601610bfa565b91505092915050565b600081359050610c9b8161155d565b92915050565b600081519050610cb08161155d565b92915050565b600060208284031215610cc857600080fd5b6000610cd684828501610c38565b91505092915050565b600060208284031215610cf157600080fd5b6000610cff84828501610c4d565b91505092915050565b600060208284031215610d1a57600080fd5b6000610d2884828501610ca1565b91505092915050565b60008060408385031215610d4457600080fd5b6000610d5285828601610c8c565b9250506020610d6385828601610c38565b9150509250929050565b60008060408385031215610d8057600080fd5b6000610d8e85828601610c8c565b925050602083013567ffffffffffffffff811115610dab57600080fd5b610db785828601610c62565b9150509250929050565b610dca8161138c565b82525050565b610dd98161139e565b82525050565b6000610dea82611365565b610df48185611370565b9350610e048185602086016113e3565b610e0d8161151e565b840191505092915050565b6000610e2382611365565b610e2d8185611381565b9350610e3d8185602086016113e3565b80840191505092915050565b6000610e56602c83611370565b91507f54686572652077617320612070726f626c656d207472616e7366657272696e6760008301527f20796f757220746f6b656e7300000000000000000000000000000000000000006020830152604082019050919050565b6000610ebc602683611370565b91507f4f776e61626c653a206e6577206f776e657220697320746865207a65726f206160008301527f64647265737300000000000000000000000000000000000000000000000000006020830152604082019050919050565b6000610f22601b83611370565b91507f42726964676520697320626c6f636b6564207269676874206e6f7700000000006000830152602082019050919050565b6000610f62603083611370565b91507f54686572652077617320612070726f626c656d207472616e7366657272696e6760008301527f20796f75722062657020746f6b656e73000000000000000000000000000000006020830152604082019050919050565b6000610fc8602083611370565b91507f4f776e61626c653a2063616c6c6572206973206e6f7420746865206f776e65726000830152602082019050919050565b6000611008602b83611370565b91507f54686973207472616e73616374696f6e20686173682068617320616c7265616460008301527f79206265656e20757365640000000000000000000000000000000000000000006020830152604082019050919050565b600061106e601b83611370565b91507f416d6f756e74206578636565647320796f75722062616c616e636500000000006000830152602082019050919050565b60006110ae601383611370565b91507f43616e6e6f7420626520616464726573732030000000000000000000000000006000830152602082019050919050565b6110ea816113ca565b82525050565b60006110fc8284610e18565b915081905092915050565b600060208201905061111c6000830184610dc1565b92915050565b60006060820190506111376000830186610dc1565b6111446020830185610dc1565b61115160408301846110e1565b949350505050565b600060408201905061116e6000830185610dc1565b61117b60208301846110e1565b9392505050565b60006020820190506111976000830184610dd0565b92915050565b600060208201905081810360008301526111b681610e49565b9050919050565b600060208201905081810360008301526111d681610eaf565b9050919050565b600060208201905081810360008301526111f681610f15565b9050919050565b6000602082019050818103600083015261121681610f55565b9050919050565b6000602082019050818103600083015261123681610fbb565b9050919050565b6000602082019050818103600083015261125681610ffb565b9050919050565b6000602082019050818103600083015261127681611061565b9050919050565b60006020820190508181036000830152611296816110a1565b9050919050565b60006040820190506112b260008301856110e1565b6112bf6020830184610dc1565b9392505050565b60006060820190506112db60008301866110e1565b6112e86020830185610dc1565b81810360408301526112fa8184610ddf565b9050949350505050565b6000604051905081810181811067ffffffffffffffff8211171561132b5761132a6114ef565b5b8060405250919050565b600067ffffffffffffffff8211156113505761134f6114ef565b5b601f19601f8301169050602081019050919050565b600081519050919050565b600082825260208201905092915050565b600081905092915050565b6000611397826113aa565b9050919050565b60008115159050919050565b600073ffffffffffffffffffffffffffffffffffffffff82169050919050565b6000819050919050565b82818337600083830152505050565b60005b838110156114015780820151818401526020810190506113e6565b83811115611410576000848401525b50505050565b6000600282049050600182168061142e57607f821691505b60208210811415611442576114416114c0565b5b50919050565b6000611453826113ca565b91507fffffffffffffffffffffffffffffffffffffffffffffffffffffffffffffffff82141561148657611485611491565b5b600182019050919050565b7f4e487b7100000000000000000000000000000000000000000000000000000000600052601160045260246000fd5b7f4e487b7100000000000000000000000000000000000000000000000000000000600052602260045260246000fd5b7f4e487b7100000000000000000000000000000000000000000000000000000000600052604160045260246000fd5b6000601f19601f8301169050919050565b6115388161138c565b811461154357600080fd5b50565b61154f8161139e565b811461155a57600080fd5b50565b611566816113ca565b811461157157600080fd5b5056fea264697066735822122079442380a8828dea943561ec3954afcac6881a81afd66509f517ba61eccac1f164736f6c63430008000033",
  "linkReferences": {},
  "deployedLinkReferences": {}
}